{
  "_format": "hh-sol-artifact-1",
  "contractName": "DebtToken",
  "sourceName": "contracts/pledge/DebtToken.sol",
  "abi": [
    {
      "inputs": [
        {
          "internalType": "string",
          "name": "_name",
          "type": "string"
        },
        {
          "internalType": "string",
          "name": "_symbol",
          "type": "string"
        },
        {
          "internalType": "address",
          "name": "multiSignature",
          "type": "address"
        }
      ],
      "stateMutability": "nonpayable",
      "type": "constructor"
    },
    {
      "anonymous": false,
      "inputs": [
        {
          "indexed": true,
          "internalType": "address",
          "name": "owner",
          "type": "address"
        },
        {
          "indexed": true,
          "internalType": "address",
          "name": "spender",
          "type": "address"
        },
        {
          "indexed": false,
          "internalType": "uint256",
          "name": "value",
          "type": "uint256"
        }
      ],
      "name": "Approval",
      "type": "event"
    },
    {
      "anonymous": false,
      "inputs": [
        {
          "indexed": true,
          "internalType": "address",
          "name": "from",
          "type": "address"
        },
        {
          "indexed": true,
          "internalType": "address",
          "name": "to",
          "type": "address"
        },
        {
          "indexed": false,
          "internalType": "uint256",
          "name": "value",
          "type": "uint256"
        }
      ],
      "name": "Transfer",
      "type": "event"
    },
    {
      "inputs": [
        {
          "internalType": "address",
          "name": "_addMinter",
          "type": "address"
        }
      ],
      "name": "addMinter",
      "outputs": [
        {
          "internalType": "bool",
          "name": "",
          "type": "bool"
        }
      ],
      "stateMutability": "nonpayable",
      "type": "function"
    },
    {
      "inputs": [
        {
          "internalType": "address",
          "name": "owner",
          "type": "address"
        },
        {
          "internalType": "address",
          "name": "spender",
          "type": "address"
        }
      ],
      "name": "allowance",
      "outputs": [
        {
          "internalType": "uint256",
          "name": "",
          "type": "uint256"
        }
      ],
      "stateMutability": "view",
      "type": "function"
    },
    {
      "inputs": [
        {
          "internalType": "address",
          "name": "spender",
          "type": "address"
        },
        {
          "internalType": "uint256",
          "name": "amount",
          "type": "uint256"
        }
      ],
      "name": "approve",
      "outputs": [
        {
          "internalType": "bool",
          "name": "",
          "type": "bool"
        }
      ],
      "stateMutability": "nonpayable",
      "type": "function"
    },
    {
      "inputs": [
        {
          "internalType": "address",
          "name": "account",
          "type": "address"
        }
      ],
      "name": "balanceOf",
      "outputs": [
        {
          "internalType": "uint256",
          "name": "",
          "type": "uint256"
        }
      ],
      "stateMutability": "view",
      "type": "function"
    },
    {
      "inputs": [
        {
          "internalType": "address",
          "name": "_from",
          "type": "address"
        },
        {
          "internalType": "uint256",
          "name": "_amount",
          "type": "uint256"
        }
      ],
      "name": "burn",
      "outputs": [
        {
          "internalType": "bool",
          "name": "",
          "type": "bool"
        }
      ],
      "stateMutability": "nonpayable",
      "type": "function"
    },
    {
      "inputs": [],
      "name": "decimals",
      "outputs": [
        {
          "internalType": "uint8",
          "name": "",
          "type": "uint8"
        }
      ],
      "stateMutability": "view",
      "type": "function"
    },
    {
      "inputs": [
        {
          "internalType": "address",
          "name": "spender",
          "type": "address"
        },
        {
          "internalType": "uint256",
          "name": "subtractedValue",
          "type": "uint256"
        }
      ],
      "name": "decreaseAllowance",
      "outputs": [
        {
          "internalType": "bool",
          "name": "",
          "type": "bool"
        }
      ],
      "stateMutability": "nonpayable",
      "type": "function"
    },
    {
      "inputs": [
        {
          "internalType": "address",
          "name": "_delMinter",
          "type": "address"
        }
      ],
      "name": "delMinter",
      "outputs": [
        {
          "internalType": "bool",
          "name": "",
          "type": "bool"
        }
      ],
      "stateMutability": "nonpayable",
      "type": "function"
    },
    {
      "inputs": [
        {
          "internalType": "uint256",
          "name": "_index",
          "type": "uint256"
        }
      ],
      "name": "getMinter",
      "outputs": [
        {
          "internalType": "address",
          "name": "",
          "type": "address"
        }
      ],
      "stateMutability": "view",
      "type": "function"
    },
    {
      "inputs": [],
      "name": "getMinterLength",
      "outputs": [
        {
          "internalType": "uint256",
          "name": "",
          "type": "uint256"
        }
      ],
      "stateMutability": "view",
      "type": "function"
    },
    {
      "inputs": [],
      "name": "getMultiSignatureAddress",
      "outputs": [
        {
          "internalType": "address",
          "name": "",
          "type": "address"
        }
      ],
      "stateMutability": "view",
      "type": "function"
    },
    {
      "inputs": [
        {
          "internalType": "address",
          "name": "spender",
          "type": "address"
        },
        {
          "internalType": "uint256",
          "name": "addedValue",
          "type": "uint256"
        }
      ],
      "name": "increaseAllowance",
      "outputs": [
        {
          "internalType": "bool",
          "name": "",
          "type": "bool"
        }
      ],
      "stateMutability": "nonpayable",
      "type": "function"
    },
    {
      "inputs": [
        {
          "internalType": "address",
          "name": "account",
          "type": "address"
        }
      ],
      "name": "isMinter",
      "outputs": [
        {
          "internalType": "bool",
          "name": "",
          "type": "bool"
        }
      ],
      "stateMutability": "view",
      "type": "function"
    },
    {
      "inputs": [
        {
          "internalType": "address",
          "name": "_to",
          "type": "address"
        },
        {
          "internalType": "uint256",
          "name": "_amount",
          "type": "uint256"
        }
      ],
      "name": "mint",
      "outputs": [
        {
          "internalType": "bool",
          "name": "",
          "type": "bool"
        }
      ],
      "stateMutability": "nonpayable",
      "type": "function"
    },
    {
      "inputs": [],
      "name": "name",
      "outputs": [
        {
          "internalType": "string",
          "name": "",
          "type": "string"
        }
      ],
      "stateMutability": "view",
      "type": "function"
    },
    {
      "inputs": [],
      "name": "symbol",
      "outputs": [
        {
          "internalType": "string",
          "name": "",
          "type": "string"
        }
      ],
      "stateMutability": "view",
      "type": "function"
    },
    {
      "inputs": [],
      "name": "totalSupply",
      "outputs": [
        {
          "internalType": "uint256",
          "name": "",
          "type": "uint256"
        }
      ],
      "stateMutability": "view",
      "type": "function"
    },
    {
      "inputs": [
        {
          "internalType": "address",
          "name": "recipient",
          "type": "address"
        },
        {
          "internalType": "uint256",
          "name": "amount",
          "type": "uint256"
        }
      ],
      "name": "transfer",
      "outputs": [
        {
          "internalType": "bool",
          "name": "",
          "type": "bool"
        }
      ],
      "stateMutability": "nonpayable",
      "type": "function"
    },
    {
      "inputs": [
        {
          "internalType": "address",
          "name": "sender",
          "type": "address"
        },
        {
          "internalType": "address",
          "name": "recipient",
          "type": "address"
        },
        {
          "internalType": "uint256",
          "name": "amount",
          "type": "uint256"
        }
      ],
      "name": "transferFrom",
      "outputs": [
        {
          "internalType": "bool",
          "name": "",
          "type": "bool"
        }
      ],
      "stateMutability": "nonpayable",
      "type": "function"
    }
  ],
  "bytecode": "0x60806040523480156200001157600080fd5b506040516200159338038062001593833981810160405260608110156200003757600080fd5b81019080805160405193929190846401000000008211156200005857600080fd5b9083019060208201858111156200006e57600080fd5b82516401000000008111828201881017156200008957600080fd5b82525081516020918201929091019080838360005b83811015620000b85781810151838201526020016200009e565b50505050905090810190601f168015620000e65780820380516001836020036101000a031916815260200191505b50604052602001805160405193929190846401000000008211156200010a57600080fd5b9083019060208201858111156200012057600080fd5b82516401000000008111828201881017156200013b57600080fd5b82525081516020918201929091019080838360005b838110156200016a57818101518382015260200162000150565b50505050905090810190601f168015620001985780820380516001836020036101000a031916815260200191505b506040526020908101518551909350839250829186918691620001c19160039185019062000272565b508051620001d790600490602084019062000272565b50506005805460ff19166012179055506001600160a01b0381166200022e5760405162461bcd60e51b8152600401808060200182810382526043815260200180620015506043913960600191505060405180910390fd5b620002637f8dddb57468cf5338ee155397ad1400a7a564308824f517d20a8a7c516523bb476001600160a01b0383166200026e565b50505050506200030e565b9055565b828054600181600116156101000203166002900490600052602060002090601f016020900481019282601f10620002b557805160ff1916838001178555620002e5565b82800160010185558215620002e5579182015b82811115620002e5578251825591602001919060010190620002c8565b50620002f3929150620002f7565b5090565b5b80821115620002f35760008155600101620002f8565b611232806200031e6000396000f3fe608060405234801561001057600080fd5b50600436106100f15760003560e01c80630323aac7146100f657806306fdde0314610110578063095ea7b31461018d57806318160ddd146101cd57806323338b88146101d557806323b872dd146101fb578063313ce56714610231578063395093511461024f57806340c10f191461027b5780635b7121f8146102a7578063638c7e17146102e057806370a08231146102e857806395d89b411461030e578063983b2d56146103165780639dc29fac1461033c578063a457c2d714610368578063a9059cbb14610394578063aa271e1a146103c0578063dd62ed3e146103e6575b600080fd5b6100fe610414565b60408051918252519081900360200190f35b610118610425565b6040805160208082528351818301528351919283929083019185019080838360005b8381101561015257818101518382015260200161013a565b50505050905090810190601f16801561017f5780820380516001836020036101000a031916815260200191505b509250505060405180910390f35b6101b9600480360360408110156101a357600080fd5b506001600160a01b0381351690602001356104bb565b604080519115158252519081900360200190f35b6100fe6104d9565b6101b9600480360360208110156101eb57600080fd5b50356001600160a01b03166104df565b6101b96004803603606081101561021157600080fd5b506001600160a01b03813581169160208101359091169060400135610531565b6102396105b8565b6040805160ff9092168252519081900360200190f35b6101b96004803603604081101561026557600080fd5b506001600160a01b0381351690602001356105c1565b6101b96004803603604081101561029157600080fd5b506001600160a01b03813516906020013561060f565b6102c4600480360360208110156102bd57600080fd5b5035610663565b604080516001600160a01b039092168252519081900360200190f35b6102c46106cc565b6100fe600480360360208110156102fe57600080fd5b50356001600160a01b03166106f7565b610118610712565b6101b96004803603602081101561032c57600080fd5b50356001600160a01b0316610773565b6101b96004803603604081101561035257600080fd5b506001600160a01b0381351690602001356107c5565b6101b96004803603604081101561037e57600080fd5b506001600160a01b038135169060200135610819565b6101b9600480360360408110156103aa57600080fd5b506001600160a01b038135169060200135610881565b6101b9600480360360208110156103d657600080fd5b50356001600160a01b0316610895565b6100fe600480360360408110156103fc57600080fd5b506001600160a01b03813581169160200135166108a2565b600061042060066108cd565b905090565b60038054604080516020601f60026000196101006001881615020190951694909404938401819004810282018101909252828152606093909290918301828280156104b15780601f10610486576101008083540402835291602001916104b1565b820191906000526020600020905b81548152906001019060200180831161049457829003601f168201915b5050505050905090565b60006104cf6104c86108d8565b84846108dc565b5060015b92915050565b60025490565b60006001600160a01b0382166105265760405162461bcd60e51b81526004018080602001828103825260258152602001806110966025913960400191505060405180910390fd5b6104d36006836109c8565b600061053e8484846109e4565b6105ae8461054a6108d8565b6105a985604051806060016040528060288152602001611106602891396001600160a01b038a166000908152600160205260408120906105886108d8565b6001600160a01b031681526020810191909152604001600020549190610b2d565b6108dc565b5060019392505050565b60055460ff1690565b60006104cf6105ce6108d8565b846105a985600160006105df6108d8565b6001600160a01b03908116825260208083019390935260409182016000908120918c168152925290205490610bc4565b600061061a33610895565b610659576040805162461bcd60e51b815260206004820152601f60248201526000805160206111b8833981519152604482015290519081900360640190fd5b6104cf8383610c1c565b6000600161066f610414565b038211156106c1576040805162461bcd60e51b815260206004820152601a602482015279546f6b656e3a20696e646578206f7574206f6620626f756e647360301b604482015290519081900360640190fd5b6104d3600683610cfa565b60006104207f8dddb57468cf5338ee155397ad1400a7a564308824f517d20a8a7c516523bb47610d06565b6001600160a01b031660009081526020819052604090205490565b60048054604080516020601f60026000196101006001881615020190951694909404938401819004810282018101909252828152606093909290918301828280156104b15780601f10610486576101008083540402835291602001916104b1565b60006001600160a01b0382166107ba5760405162461bcd60e51b81526004018080602001828103825260258152602001806110e16025913960400191505060405180910390fd5b6104d3600683610d0a565b60006107d033610895565b61080f576040805162461bcd60e51b815260206004820152601f60248201526000805160206111b8833981519152604482015290519081900360640190fd5b6104cf8383610d1f565b60006104cf6108266108d8565b846105a9856040518060600160405280602581526020016111d860259139600160006108506108d8565b6001600160a01b03908116825260208083019390935260409182016000908120918d16815292529020549190610b2d565b60006104cf61088e6108d8565b84846109e4565b60006104d3600683610e09565b6001600160a01b03918216600090815260016020908152604080832093909416825291909152205490565b60006104d382610d06565b3390565b6001600160a01b0383166109215760405162461bcd60e51b81526004018080602001828103825260248152602001806111946024913960400191505060405180910390fd5b6001600160a01b0382166109665760405162461bcd60e51b81526004018080602001828103825260228152602001806110746022913960400191505060405180910390fd5b6001600160a01b03808416600081815260016020908152604080832094871680845294825291829020859055815185815291517f8c5be1e5ebec7d5bd14f71427d1e84f3dd0314c0f7b2291e5b200ac8c7c3b9259281900390910190a3505050565b60006109dd836001600160a01b038416610e1e565b9392505050565b6001600160a01b038316610a295760405162461bcd60e51b815260040180806020018281038252602581526020018061116f6025913960400191505060405180910390fd5b6001600160a01b038216610a6e5760405162461bcd60e51b815260040180806020018281038252602381526020018061102f6023913960400191505060405180910390fd5b610a79838383610ee4565b610ab6816040518060600160405280602681526020016110bb602691396001600160a01b0386166000908152602081905260409020549190610b2d565b6001600160a01b038085166000908152602081905260408082209390935590841681522054610ae59082610bc4565b6001600160a01b0380841660008181526020818152604091829020949094558051858152905191939287169260008051602061112e83398151915292918290030190a3505050565b60008184841115610bbc5760405162461bcd60e51b81526004018080602001828103825283818151815260200191508051906020019080838360005b83811015610b81578181015183820152602001610b69565b50505050905090810190601f168015610bae5780820380516001836020036101000a031916815260200191505b509250505060405180910390fd5b505050900390565b6000828201838110156109dd576040805162461bcd60e51b815260206004820152601b60248201527a536166654d6174683a206164646974696f6e206f766572666c6f7760281b604482015290519081900360640190fd5b6001600160a01b038216610c77576040805162461bcd60e51b815260206004820152601f60248201527f45524332303a206d696e7420746f20746865207a65726f206164647265737300604482015290519081900360640190fd5b610c8360008383610ee4565b600254610c909082610bc4565b6002556001600160a01b038216600090815260208190526040902054610cb69082610bc4565b6001600160a01b03831660008181526020818152604080832094909455835185815293519293919260008051602061112e8339815191529281900390910190a35050565b60006109dd8383610ee9565b5490565b60006109dd836001600160a01b038416610f4d565b6001600160a01b038216610d645760405162461bcd60e51b815260040180806020018281038252602181526020018061114e6021913960400191505060405180910390fd5b610d7082600083610ee4565b610dad81604051806060016040528060228152602001611052602291396001600160a01b0385166000908152602081905260409020549190610b2d565b6001600160a01b038316600090815260208190526040902055600254610dd39082610f97565b6002556040805182815290516000916001600160a01b0385169160008051602061112e8339815191529181900360200190a35050565b60006109dd836001600160a01b038416610ff4565b60008181526001830160205260408120548015610eda5783546000198083019190810190600090879083908110610e5157fe5b9060005260206000200154905080876000018481548110610e6e57fe5b600091825260208083209091019290925582815260018981019092526040902090840190558654879080610e9e57fe5b600190038181906000526020600020016000905590558660010160008781526020019081526020016000206000905560019450505050506104d3565b60009150506104d3565b505050565b81546000908210610f2b5760405162461bcd60e51b815260040180806020018281038252602281526020018061100d6022913960400191505060405180910390fd5b826000018281548110610f3a57fe5b9060005260206000200154905092915050565b6000610f598383610ff4565b610f8f575081546001818101845560008481526020808220909301849055845484825282860190935260409020919091556104d3565b5060006104d3565b600082821115610fee576040805162461bcd60e51b815260206004820152601e60248201527f536166654d6174683a207375627472616374696f6e206f766572666c6f770000604482015290519081900360640190fd5b50900390565b6000908152600191909101602052604090205415159056fe456e756d657261626c655365743a20696e646578206f7574206f6620626f756e647345524332303a207472616e7366657220746f20746865207a65726f206164647265737345524332303a206275726e20616d6f756e7420657863656564732062616c616e636545524332303a20617070726f766520746f20746865207a65726f2061646472657373546f6b656e3a205f64656c4d696e74657220697320746865207a65726f206164647265737345524332303a207472616e7366657220616d6f756e7420657863656564732062616c616e6365546f6b656e3a205f6164644d696e74657220697320746865207a65726f206164647265737345524332303a207472616e7366657220616d6f756e74206578636565647320616c6c6f77616e6365ddf252ad1be2c89b69c2b068fc378daa952ba7f163c4a11628f55a4df523b3ef45524332303a206275726e2066726f6d20746865207a65726f206164647265737345524332303a207472616e736665722066726f6d20746865207a65726f206164647265737345524332303a20617070726f76652066726f6d20746865207a65726f2061646472657373546f6b656e3a2063616c6c6572206973206e6f7420746865206d696e7465720045524332303a2064656372656173656420616c6c6f77616e63652062656c6f77207a65726fa264697066735822122026ad24cb31a5a057f7f14743251d20b667fb88979bce1492adeaeea5c49cd84164736f6c634300060c00336d756c74695369676e6174757265436c69656e74203a204d756c7469706c65207369676e617475726520636f6e74726163742061646472657373206973207a65726f21",
  "linkReferences": {},
  "deployedLinkReferences": {}
}