{
  "_format": "hh-sol-artifact-1",
  "contractName": "AddressPrivileges",
  "sourceName": "contracts/pledge/AddressPrivileges.sol",
  "abi": [
    {
      "inputs": [
        {
          "internalType": "address",
          "name": "multiSignature",
          "type": "address"
        }
      ],
      "stateMutability": "nonpayable",
      "type": "constructor"
    },
    {
      "inputs": [
        {
          "internalType": "address",
          "name": "_addMinter",
          "type": "address"
        }
      ],
      "name": "addMinter",
      "outputs": [
        {
          "internalType": "bool",
          "name": "",
          "type": "bool"
        }
      ],
      "stateMutability": "nonpayable",
      "type": "function"
    },
    {
      "inputs": [
        {
          "internalType": "address",
          "name": "_delMinter",
          "type": "address"
        }
      ],
      "name": "delMinter",
      "outputs": [
        {
          "internalType": "bool",
          "name": "",
          "type": "bool"
        }
      ],
      "stateMutability": "nonpayable",
      "type": "function"
    },
    {
      "inputs": [
        {
          "internalType": "uint256",
          "name": "_index",
          "type": "uint256"
        }
      ],
      "name": "getMinter",
      "outputs": [
        {
          "internalType": "address",
          "name": "",
          "type": "address"
        }
      ],
      "stateMutability": "view",
      "type": "function"
    },
    {
      "inputs": [],
      "name": "getMinterLength",
      "outputs": [
        {
          "internalType": "uint256",
          "name": "",
          "type": "uint256"
        }
      ],
      "stateMutability": "view",
      "type": "function"
    },
    {
      "inputs": [],
      "name": "getMultiSignatureAddress",
      "outputs": [
        {
          "internalType": "address",
          "name": "",
          "type": "address"
        }
      ],
      "stateMutability": "view",
      "type": "function"
    },
    {
      "inputs": [
        {
          "internalType": "address",
          "name": "account",
          "type": "address"
        }
      ],
      "name": "isMinter",
      "outputs": [
        {
          "internalType": "bool",
          "name": "",
          "type": "bool"
        }
      ],
      "stateMutability": "view",
      "type": "function"
    }
  ],
  "bytecode": "0x608060405234801561001057600080fd5b5060405161063e38038061063e8339818101604052602081101561003357600080fd5b5051806001600160a01b03811661007b5760405162461bcd60e51b81526004018080602001828103825260438152602001806105fb6043913960600191505060405180910390fd5b6100ae7f8dddb57468cf5338ee155397ad1400a7a564308824f517d20a8a7c516523bb476001600160a01b0383166100b5565b50506100b9565b9055565b610533806100c86000396000f3fe608060405234801561001057600080fd5b50600436106100625760003560e01c80630323aac71461006757806323338b88146100815780635b7121f8146100bb578063638c7e17146100f4578063983b2d56146100fc578063aa271e1a14610122575b600080fd5b61006f610148565b60408051918252519081900360200190f35b6100a76004803603602081101561009757600080fd5b50356001600160a01b0316610159565b604080519115158252519081900360200190f35b6100d8600480360360208110156100d157600080fd5b50356101b1565b604080516001600160a01b039092168252519081900360200190f35b6100d861021a565b6100a76004803603602081101561011257600080fd5b50356001600160a01b0316610245565b6100a76004803603602081101561013857600080fd5b50356001600160a01b0316610297565b600061015460006102a4565b905090565b60006001600160a01b0382166101a05760405162461bcd60e51b81526004018080602001828103825260258152602001806104b46025913960400191505060405180910390fd5b6101ab6000836102af565b92915050565b600060016101bd610148565b0382111561020f576040805162461bcd60e51b815260206004820152601a602482015279546f6b656e3a20696e646578206f7574206f6620626f756e647360301b604482015290519081900360640190fd5b6101ab6000836102cb565b60006101547f8dddb57468cf5338ee155397ad1400a7a564308824f517d20a8a7c516523bb476102d7565b60006001600160a01b03821661028c5760405162461bcd60e51b81526004018080602001828103825260258152602001806104d96025913960400191505060405180910390fd5b6101ab6000836102db565b60006101ab6000836102f0565b60006101ab826102d7565b60006102c4836001600160a01b038416610305565b9392505050565b60006102c483836103cb565b5490565b60006102c4836001600160a01b03841661042f565b60006102c4836001600160a01b038416610479565b600081815260018301602052604081205480156103c1578354600019808301919081019060009087908390811061033857fe5b906000526020600020015490508087600001848154811061035557fe5b60009182526020808320909101929092558281526001898101909252604090209084019055865487908061038557fe5b600190038181906000526020600020016000905590558660010160008781526020019081526020016000206000905560019450505050506101ab565b60009150506101ab565b8154600090821061040d5760405162461bcd60e51b81526004018080602001828103825260228152602001806104926022913960400191505060405180910390fd5b82600001828154811061041c57fe5b9060005260206000200154905092915050565b600061043b8383610479565b610471575081546001818101845560008481526020808220909301849055845484825282860190935260409020919091556101ab565b5060006101ab565b6000908152600191909101602052604090205415159056fe456e756d657261626c655365743a20696e646578206f7574206f6620626f756e6473546f6b656e3a205f64656c4d696e74657220697320746865207a65726f2061646472657373546f6b656e3a205f6164644d696e74657220697320746865207a65726f2061646472657373a26469706673582212205e509fd39ad37fb80b14670bf44a667d3a0715ebebb0f560aec6a22b567297d564736f6c634300060c00336d756c74695369676e6174757265436c69656e74203a204d756c7469706c65207369676e617475726520636f6e74726163742061646472657373206973207a65726f21",
  "linkReferences": {},
  "deployedLinkReferences": {}
}